:020000040800F2
:1000000070060020B5010008BD010008BF0100080E
:10001000C1010008C3010008C5010008000000007C
:10002000000000000000000000000000C701000800
:10003000C901000800000000CB010008C903000846
:10004000CF010008CF010008CF010008CF01000850
:10005000CF010008CF01000871020008CF0100089D
:10006000CF010008CF010008CF010008CF01000830
:10007000CF010008CF010008CF010008CF01000820
:10008000CF010008CF010008CF010008CF01000810
:10009000CF010008CF010008CF010008CF01000800
:1000A000CF010008CF010008CF010008CF010008F0
:1000B000CF010008CF010008CF010008CF010008E0
:1000C000CF010008CF010008CF010008CF010008D0
:1000D000CF010008CF010008CF010008CF010008C0
:1000E000CF010008CF010008CF01000800F002F89E
:1000F00000F050F814A696E8000CB244B344DA4578
:1001000001D100F047F8BAE80F000FA696E83000DA
:10011000A5EB040504EB0607AAEB0704A7F101070A
:100120004FEA15154FEA3414A4F10104AC4201D38F
:1001300000F030F813F0010F18BFFB1A43F0010371
:1001400000F001F8DBE718476C1200008C12000089
:10015000103A24BF78C878C1FAD8520724BF30C8F3
:1001600030C144BF04680C60704700007047000055
:100170000023002400250026103A28BF78C1FBD8B0
:10018000520728BF30C148BF0B6070471FB51FBD65
:1001900010B510BD00F031F81146FFF7F7FF00F081
:1001A000F5FB00F04FF803B4FFF7F2FF03BC00F0DB
:1001B00057F800000948804709480047FEE7FEE776
:1001C000FEE7FEE7FEE7FEE7FEE7FEE7FEE7FEE707
:1001D00004480549054A064B70470000E90300083A
:1001E000ED00000870000020700600207002002062
:1001F00070020020704770477047754600F02CF879
:10020000AE4605006946534620F00700854618B003
:1002100020B5FFF7DDFFBDE820404FF000064FF0AE
:1002200000074FF000084FF0000BAC46ACE8C009E7
:10023000ACE8C009ACE8C009ACE8C00921F007018E
:100240008D46704710B50446AFF300802046BDE8E8
:100250001040FFF7A8BF00000048704708000020CA
:1002600001491820ABBEFEE72600020070470000DF
:1002700040F21440C4F201000068C00760B1FFE71B
:1002800040F21441C4F201010120086040F26A0109
:10029000C2F200010870FFE77047000080B500F06F
:1002A00001F880BD84B000200390029041F200016B
:1002B000C4F20201086840F480300860FFE741F2B0
:1002C0000000C4F20200006800F4003002900398BD
:1002D00001300390FFE702990020019039B9FFE750
:1002E0000398B0F5A06018BF01200190FFE70198C6
:1002F000C0070028E3D1FFE741F20000C4F202008A
:1003000000688003002803D5FFE70120029002E087
:1003100000200290FFE70298012851D1FFE742F246
:100320000001C4F20201086840F01000086008688B
:1003300020F007000860086840F00200086041F201
:100340000401C4F2020100910868086008680860AE
:10035000086840F480600860086820F47C10086039
:10036000086840F4E810086041F20001C4F202019C
:10037000086840F080700860FFE741F20000C4F2B6
:10038000020000688001002801D4FFE7F5E741F290
:100390000401C4F20201086820F003000860086844
:1003A00040F002000860FFE741F20400C4F20200DE
:1003B000006800F00C00082801D0FFE7F4E700E037
:1003C000FFE704B07047000040F26C00C2F200008A
:1003D000006840B1FFE740F26C01C2F2000108681A
:1003E00001380860FFE7704780B541F20002C4F2AF
:1003F0000202106840F00100106041F20401C4F2F2
:10040000020108680023CFF6FF0318400860106857
:100410004FF6FF73CFF6F66318401060106820F4B3
:1004200080201060086820F4FE00086041F2080196
:10043000C4F202014FF41F000860FFF72FFF4EF6D1
:100440000851CEF200014FF00060086080BD00004E
:1004500081B08DF803009DF9030000280ED4FFE75A
:100460009DF9031001F01F02012090404A094EF24D
:100470000011CEF2000141F82200FFE701B0704701
:1004800081B08DF803008DF802109DF803109DF8DF
:10049000020000F0010040EA4100C0B245F6100140
:1004A000C4F200010880FFE745F61400C4F2000022
:1004B00000888007002801D4FFE7F5E745F614001F
:1004C000C4F20000008845F61800C4F2000000885D
:1004D00001B0704745F60001C4F20001088840F4FD
:1004E00080700880FFE745F61400C4F20000008821
:1004F000C00708B9FFE7F6E745F61400C4F20000AC
:100500000088704745F60001C4F20001088840F4F5
:10051000007008807047000080B58AB08DF8230015
:1005200000200790FFE707982E281ED8FFE70798BE
:1005300000EB400140F6FE60C0F6000010F831000C
:100540009DF8231088420BD1FFE7079800EB40018C
:1005500040F6FE60C0F6000000EBC1000990ABE081
:10056000FFE7079801300790DDE79DF82300612839
:1005700079DBFFE79DF823007A2874DCFFE7002091
:100580000690FFE70698152841D8FFE7069941F243
:100590006630C0F6000010F811009DF82310884264
:1005A00030D1FFE7069941F26630C0F6000000EB5B
:1005B000410040788DF8170000200490FFE7049870
:1005C0002E281ED8FFE7049800EB400140F6FE609D
:1005D000C0F6000010F831009DF8171088420BD1CA
:1005E000FFE7049800EB400140F6FE60C0F6000013
:1005F00000EBC10009905FE0FFE704980130049030
:10060000DDE704E0FFE7069801300690BAE79DF8C1
:10061000230000F059FC8DF80F0000200290FFE746
:1006200002982E281ED8FFE7029800EB400140F602
:10063000FE60C0F6000010F831009DF80F108842EF
:100640000BD1FFE7029800EB400140F6FE60C0F6D8
:10065000000000EBC10009902EE0FFE70298013096
:100660000290DDE7FFE700200190FFE701982E28C8
:100670001CD8FFE7019800EB400140F6FE60C0F691
:10068000000010F831003F280BD1FFE7019800EB84
:10069000400140F6FE60C0F6000000EBC10009908A
:1006A0000AE0FFE7019801300190DFE740F6FE60C5
:1006B000C0F600000990FFE709980AB080BD00006D
:1006C00080B500F0F9F880BD81B041F21C01C4F2A0
:1006D0000201086840F48000086045F60001C4F299
:1006E00000014FF4004008800020088045F6040116
:1006F000C4F2000124200880B420ADF80200BDF847
:100700000200032804D8FFE70420ADF80200FFE749
:10071000BDF8020045F61C01C4F20001088045F650
:100720002001C4F200012520088045F60001C4F232
:100730000001088840F00100088001B07047000007
:1007400080B586B08DF813000391ADF80A20BDF88E
:100750000A0018B9FFE7002005905DE0FFE745F6C5
:100760001800C4F2000000888007002801D5FFE7C8
:10077000F5E7FFF7AFFE9DF8130000210191FFF7A9
:100780007FFE0198ADF80800FFE7BDF80800BDF84E
:100790000A1088422FDAFFE7FFE745F61400C4F29B
:1007A000000000880006002801D4FFE7F5E7039861
:1007B000BDF80810405C45F61001C4F20001088045
:1007C000BDF80800BDF80A10013988420CD2FFE7D5
:1007D000FFE745F61400C4F2000000884007002837
:1007E00001D4FFE7F5E7FFE7FFE7BDF808000130B8
:1007F000ADF80800C9E7FFE745F61400C4F20000B1
:1008000000884007002801D4FFE7F5E7FFF77AFEEC
:10081000BDF80A000590FFE7059806B080BD00000E
:1008200080B541F21801C4F20201086840F00900E5
:100830000860FFE740F60041C4F20101086820F0BB
:100840000F000860086840F008000860FFE740F605
:100850000C41C4F20101086820F001000860082181
:10086000C4F20101086820F00F000860086840F039
:100870000100086040F20041C4F20101086840F044
:100880000100086040F20841C4F20101086840F02C
:100890000100086040F20C41C4F20101086820F038
:1008A000010008600620FFF7D3FD40F21441C4F2B6
:1008B00001010120086080BD41F21801C4F202016B
:1008C000086840F01900086041F21C01C4F20201FE
:1008D000086840F480000860FFE740F60441C4F275
:1008E0000101086820F470600860086840F47060D6
:1008F0000860FFE7FFE740F60441C4F20101086821
:1009000020F470400860086840F470400860FFE719
:10091000FFE741F20401C4F20101086820F470000D
:100920000860086840F480100860FFE741F2100199
:10093000C4F201014FF400500860FFE740F60041A7
:10094000C4F20101086820F00F000860086840F058
:1009500008000860FFE740F60C41C4F20101086896
:1009600040F001000860704741F21001C4F201013B
:100970004FF400500860704741F20C01C4F20101CD
:10098000086880F4005008607047000080B584B0AB
:1009900000200390FFF728FDFFF792FEFFF7E4FF2A
:1009A000FFF792FEFFF73CFF00F020F98DF80B00F7
:1009B0009DF80B0000F0C0F900F04AF900F01EF8B5
:1009C000FFE740F26A00C2F200000078A0B1FFE742
:1009D00040F26A01C2F20001002001900870FFF7A6
:1009E000CBFF0198022100F0B5F941F29230C0F638
:1009F000000000F03FFAFFE700BFE2E780B582B0F9
:100A000000F0B8F800210191084600F0A3F941F286
:100A1000A330C0F6000000F02DFA0198022100F08A
:100A200099F941F29730C0F6000000F023FA02B0C5
:100A300080BD000080B584B0ADF80E00BDF80E009A
:100A40008DF80D009DF80F008DF80C0040F2690044
:100A5000C2F200000290007840F26801C2F2000188
:100A60000191097800F066F89DF80D0000F04AF851
:100A700001990298007809780131C9B200F05AF85A
:100A80009DF80C0000F03EF80298017801310170E9
:100A900090F90000B0F1FF3F03DCFFE700F004F83D
:100AA000FFE704B080BD000080B540F26900C2F2EB
:100AB00000000021017040F26801C2F200010A78D2
:100AC000023202F007020A700078097800F032F86A
:100AD00080BD000080B582B08DF8070000208DF841
:100AE00005009DF807008DF8060040F20000C2F2F4
:100AF000000000780DF105010222FFF721FE02B08F
:100B000080BD000080B582B08DF8070040208DF8D0
:100B100005009DF807008DF8060040F20000C2F2C3
:100B2000000000780DF105010222FFF709FE02B076
:100B300080BD000080B582B08DF807008DF80610EA
:100B40009DF807008DF805009DF80600162161F359
:100B5000DF00FFF7BFFF9DF8050000F00F00FFF773
:100B6000B9FF9DF8050000091030FFF7B3FF02B090
:100B700080BD000080B582B000208DF80700FFE73F
:100B80009DF80700072820D8FFE79DF807100020F0
:100B90000090FFF7CFFF00988DF80600FFE79DF962
:100BA000060000280AD4FFE70020FFF7ABFFFFE7AD
:100BB0009DF8060001308DF80600F0E7FFE79DF88C
:100BC000070001308DF80700DAE740F26900C2F251
:100BD00000000021017040F26800C2F200000170C4
:100BE0000846FFF7A7FF02B080BD000080B584B0C3
:100BF0004FF42E40ADF80C003C20019000F09CF822
:100C0000019803A90222FFF79BFD02900298022897
:100C100004D1FFE73C208DF80F0015E03D20009047
:100C200000F08AF8009803A90222FFF789FD0290DC
:100C30000298022804D1FFE73D208DF80F0003E061
:100C40003C208DF80F00FFE79DF80F0004B080BD39
:100C500080B584B0AE20FFF73DFF2020FFF73AFFBC
:100C600000200390FFF736FFA120FFF733FFC820D5
:100C7000FFF730FFB020FFF72DFF0398FFF72AFFA3
:100C80001020FFF727FF40200190FFF723FF81206E
:100C9000FFF720FF7F200290FFF71CFFA620FFF741
:100CA00019FFA820FFF716FF3F20FFF713FFA4202E
:100CB000FFF710FFD320FFF70DFF0398FFF70AFFA0
:100CC000D520FFF707FF8020FFF704FFD920FFF7AB
:100CD00001FFF120FFF7FEFEDA20FFF7FBFE1220F6
:100CE000FFF7F8FEDB20FFF7F5FE0198FFF7F2FEB5
:100CF0008D20FFF7EFFE1420FFF7ECFEAF20FFF78B
:100D0000E9FE2120FFF7E6FE0398FFF7E3FE0298D5
:100D1000FFF7E0FE2220FFF7DDFE0398FFF7DAFE83
:100D20000720FFF7D7FEFFF725FF0399084600F0DD
:100D300011F804B080BD000081B08DF803009DF86B
:100D4000030000F07F0040F20001C2F200010870D1
:100D500001B0704780B582B08DF807008DF806109D
:100D60009DF90700B0F1FF3F04DCFFE700208DF89C
:100D70000700FFE79DF80600082804D3FFE70020DE
:100D80008DF80600FFE79DF80600C00730B1FFE7C9
:100D90009DF8060001388DF80600FFE79DF8071062
:100DA00040F26900C2F2000001709DF8062040F296
:100DB0006801C2F200010A7000780978FFF7BAFEF4
:100DC00002B080BD80B586B08DF817009DF8170081
:100DD000FFF7A2FB0490049808B9FFE747E0002062
:100DE0008DF80F00FFE79DF80F00049949788842BD
:100DF00013DAFFE704989DF80F1000EB41004088DC
:100E0000ADF80C00BDF80C00FFF714FEFFE79DF8ED
:100E10000F0001308DF80F00E5E740F26900C2F2E3
:100E200000000290007840F26801C2F200010091D7
:100E30000978FFF77FFE00200190FFF763FE00991D
:100E40000298007809780131C9B2FFF773FE019862
:100E5000FFF758FE029801780131017090F9000007
:100E6000B0F1FF3F03DCFFE7FFF71EFEFFE706B030
:100E700080BD000080B584B00390FFE70399002097
:100E8000019039B1FFE703980078002818BF0120CE
:100E90000190FFE70198C00798B1FFE70398411C54
:100EA000039100788DF80B009DF80B000A2803D100
:100EB000FFE7FFF7F9FDE1E79DF80B00FFF782FF81
:100EC000DCE704B080BD000082B08DF807009DF81B
:100ED000070061280BDBFFE79DF807007A2806DC96
:100EE000FFE79DF807002038C0B2009003E09DF8AE
:100EF00007000090FFE70098C0B202B070472002E0
:100F000000000000000000000000000000000000E1
:100F10000000000000002102007E007E00000000B2
:100F200000000000000000000000000000002E0291
:100F30000000006000000000000000000000000051
:100F40000000000000002C020020006000000000F3
:100F500000000000000000000000000000002D0460
:100F6000800180018001800100000000000000007D
:100F70000000000000003A02600660060000000069
:100F800000000000000000000000000000003F071B
:100F900018000C00066106630C03F801F000000065
:100FA0000000000000003009E007F81F1C3C0E7034
:100FB00006600E701C3CF81FE007000000003106C0
:100FC00018003C00FE7FFE7F0000000000000000D3
:100FD00000000000000032093018383C1C7E1C67FD
:100FE0008E63CE61FC6078603060000000003309E1
:100FF00018183C387E7066606660E670FC3DF81D2F
:10100000700C000000003409C001E0037006380CC9
:101010003C18FE7FFE7F0000000000000000350944
:101020007E607E60666066606660E670FC3DF81D0E
:10103000700C000000003609F007F81FDC39CE7094
:10104000C660C670CE399C1F180F0000000037091B
:10105000006000703E7CFE1FE003F0007800380066
:101060001800000000003809780FFC1FCE39C67048
:10107000C660C670CE39FC1F780F00000000390929
:101080007818FC39CE73C6E1C6C1C6E1CE73FC3F09
:10109000F81F000000004109F001FC071E1E373850
:1010A000337037381E1EFC07F001000000004209B3
:1010B000FE7FFE7FC660C660C660EE70FC3DF81D18
:1010C000700C000000004308F807FE1F0F3C03707F
:1010D000036003701F383E18000000000000440940
:1010E000FE7FFE7F066006600E701C3CF81FF00F4E
:1010F0000000000000004508FE7FFE7F666066601D
:1011000066606660666006600000000000004608D9
:10111000FE7FFE7F66006600660066000600060031
:101120000000000000004709F807FE1F063C06709B
:10113000C661C671CE3FDC1F980700000000480959
:10114000FE7FFE7F6000600060006000FE7FFE7F2B
:1011500000000000000049050660FE7FFE7F06607B
:1011600000000000000000000000000000004A072E
:101170000018003806700660FE7FFE3F0000000089
:101180000000000000004B09FE7FFE7FE000F0033E
:101190001C0F0E3C067002600000000000004C07AF
:1011A000FE7FFE7F00600060006000600060000065
:1011B0000000000000004D0BFE7FFE7F3C00F000B1
:1011C000C003C003F0003C00FE7FFE7F00004E0A1B
:1011D000FE7FFE7F1E007800E0018007001EFE7F7C
:1011E000FE7F000000004F09F807FE1F0F3C07704C
:1011F000036007700F3CFE1FF80700000000500955
:10120000FE7FFE7FC600C600C600EE007C003800F0
:101210000000000000005109F807FE1F0F3C077096
:101220000364077C0F3EFE3FF827000000005209D0
:10123000FE7FFE7FC600C601C6076E1E3C380070EA
:101240000060000000005309F820FC618E63066313
:10125000066386739C3F181F000E000000005409AF
:1012600006000600FE7FFE7F060006000600000066
:101270000000000000005509FE3FFE7F0060006096
:1012800000600060FE7FFE3F000000000000560985
:101290003E00FE01E007001F0078001FE007FE018E
:1012A0003E0000000000570BFE03FE1F007C801F65
:1012B000F003F003801F007CFE1FFE0300005809AE
:1012C00006601C38781EE007C003E007781E1C3853
:1012D00006600000000059090E003E00F800E07FA3
:1012E000E07FF8003E000E000000000000005A09F8
:1012F00006700678067E8667E661FE607E603E6068
:101300001E60000000006109F000F8019803180356
:1013100018039803F803F0070006000000006509B1
:10132000F001F80338061806F807F807180638061B
:101330001000000000006C0900000000F87FF87F3A
:1013400008000C000C0008000000000000006F09FD
:10135000F001F8033C061C061C063C06F803F001ED
:101360000000000000006242634364446646674731
:10137000684869496A4A6B4B6D4D6E4E70507151A9
:101380007252735374547555765677577858795905
:101390007A5A42544E2100414354495649444144EB
:1013A0002034004349544C414C4C49205941454C50
:1013B00000000000D8130008000000200800000012
:1013C00050010008E0130008080000206806000033
:1013D00070010008000000003C0000000000000058
:04000005080000ED02
:00000001FF
